{
  "contractName": "Exchange",
  "abi": [
    {
      "inputs": [
        {
          "internalType": "address",
          "name": "_freeAccount",
          "type": "address"
        },
        {
          "internalType": "uint256",
          "name": "_freePercent",
          "type": "uint256"
        }
      ],
      "stateMutability": "nonpayable",
      "type": "constructor"
    },
    {
      "anonymous": false,
      "inputs": [
        {
          "indexed": false,
          "internalType": "uint256",
          "name": "id",
          "type": "uint256"
        },
        {
          "indexed": false,
          "internalType": "address",
          "name": "user",
          "type": "address"
        },
        {
          "indexed": false,
          "internalType": "address",
          "name": "tokenGet",
          "type": "address"
        },
        {
          "indexed": false,
          "internalType": "uint256",
          "name": "amountGet",
          "type": "uint256"
        },
        {
          "indexed": false,
          "internalType": "address",
          "name": "tokenGive",
          "type": "address"
        },
        {
          "indexed": false,
          "internalType": "uint256",
          "name": "amountGive",
          "type": "uint256"
        },
        {
          "indexed": false,
          "internalType": "uint256",
          "name": "timestamp",
          "type": "uint256"
        }
      ],
      "name": "Cancel",
      "type": "event"
    },
    {
      "anonymous": false,
      "inputs": [
        {
          "indexed": false,
          "internalType": "address",
          "name": "token",
          "type": "address"
        },
        {
          "indexed": false,
          "internalType": "address",
          "name": "user",
          "type": "address"
        },
        {
          "indexed": false,
          "internalType": "uint256",
          "name": "amount",
          "type": "uint256"
        },
        {
          "indexed": false,
          "internalType": "uint256",
          "name": "balance",
          "type": "uint256"
        }
      ],
      "name": "Deposit",
      "type": "event"
    },
    {
      "anonymous": false,
      "inputs": [
        {
          "indexed": false,
          "internalType": "uint256",
          "name": "id",
          "type": "uint256"
        },
        {
          "indexed": false,
          "internalType": "address",
          "name": "user",
          "type": "address"
        },
        {
          "indexed": false,
          "internalType": "address",
          "name": "tokenGet",
          "type": "address"
        },
        {
          "indexed": false,
          "internalType": "uint256",
          "name": "amountGet",
          "type": "uint256"
        },
        {
          "indexed": false,
          "internalType": "address",
          "name": "tokenGive",
          "type": "address"
        },
        {
          "indexed": false,
          "internalType": "uint256",
          "name": "amountGive",
          "type": "uint256"
        },
        {
          "indexed": false,
          "internalType": "uint256",
          "name": "timestamp",
          "type": "uint256"
        }
      ],
      "name": "Order",
      "type": "event"
    },
    {
      "anonymous": false,
      "inputs": [
        {
          "indexed": false,
          "internalType": "uint256",
          "name": "id",
          "type": "uint256"
        },
        {
          "indexed": false,
          "internalType": "address",
          "name": "user",
          "type": "address"
        },
        {
          "indexed": false,
          "internalType": "address",
          "name": "tokenGet",
          "type": "address"
        },
        {
          "indexed": false,
          "internalType": "uint256",
          "name": "amountGet",
          "type": "uint256"
        },
        {
          "indexed": false,
          "internalType": "address",
          "name": "tokenGive",
          "type": "address"
        },
        {
          "indexed": false,
          "internalType": "uint256",
          "name": "amountGive",
          "type": "uint256"
        },
        {
          "indexed": false,
          "internalType": "address",
          "name": "userFill",
          "type": "address"
        },
        {
          "indexed": false,
          "internalType": "uint256",
          "name": "timestamp",
          "type": "uint256"
        }
      ],
      "name": "Trade",
      "type": "event"
    },
    {
      "anonymous": false,
      "inputs": [
        {
          "indexed": false,
          "internalType": "address",
          "name": "token",
          "type": "address"
        },
        {
          "indexed": false,
          "internalType": "address",
          "name": "user",
          "type": "address"
        },
        {
          "indexed": false,
          "internalType": "uint256",
          "name": "amount",
          "type": "uint256"
        },
        {
          "indexed": false,
          "internalType": "uint256",
          "name": "balance",
          "type": "uint256"
        }
      ],
      "name": "Withdraw",
      "type": "event"
    },
    {
      "stateMutability": "nonpayable",
      "type": "fallback"
    },
    {
      "inputs": [],
      "name": "feeAccount",
      "outputs": [
        {
          "internalType": "address",
          "name": "",
          "type": "address"
        }
      ],
      "stateMutability": "view",
      "type": "function",
      "constant": true
    },
    {
      "inputs": [],
      "name": "feePercent",
      "outputs": [
        {
          "internalType": "uint256",
          "name": "",
          "type": "uint256"
        }
      ],
      "stateMutability": "view",
      "type": "function",
      "constant": true
    },
    {
      "inputs": [
        {
          "internalType": "uint256",
          "name": "",
          "type": "uint256"
        }
      ],
      "name": "orderCanceled",
      "outputs": [
        {
          "internalType": "bool",
          "name": "",
          "type": "bool"
        }
      ],
      "stateMutability": "view",
      "type": "function",
      "constant": true
    },
    {
      "inputs": [],
      "name": "orderCount",
      "outputs": [
        {
          "internalType": "uint256",
          "name": "",
          "type": "uint256"
        }
      ],
      "stateMutability": "view",
      "type": "function",
      "constant": true
    },
    {
      "inputs": [
        {
          "internalType": "uint256",
          "name": "",
          "type": "uint256"
        }
      ],
      "name": "orderFilled",
      "outputs": [
        {
          "internalType": "bool",
          "name": "",
          "type": "bool"
        }
      ],
      "stateMutability": "view",
      "type": "function",
      "constant": true
    },
    {
      "inputs": [
        {
          "internalType": "uint256",
          "name": "",
          "type": "uint256"
        }
      ],
      "name": "orders",
      "outputs": [
        {
          "internalType": "uint256",
          "name": "id",
          "type": "uint256"
        },
        {
          "internalType": "address",
          "name": "user",
          "type": "address"
        },
        {
          "internalType": "address",
          "name": "tokenGet",
          "type": "address"
        },
        {
          "internalType": "uint256",
          "name": "amountGet",
          "type": "uint256"
        },
        {
          "internalType": "address",
          "name": "tokenGive",
          "type": "address"
        },
        {
          "internalType": "uint256",
          "name": "amountGive",
          "type": "uint256"
        },
        {
          "internalType": "uint256",
          "name": "timestamp",
          "type": "uint256"
        }
      ],
      "stateMutability": "view",
      "type": "function",
      "constant": true
    },
    {
      "inputs": [
        {
          "internalType": "address",
          "name": "",
          "type": "address"
        },
        {
          "internalType": "address",
          "name": "",
          "type": "address"
        }
      ],
      "name": "tokens",
      "outputs": [
        {
          "internalType": "uint256",
          "name": "",
          "type": "uint256"
        }
      ],
      "stateMutability": "view",
      "type": "function",
      "constant": true
    },
    {
      "inputs": [
        {
          "internalType": "address",
          "name": "_token",
          "type": "address"
        },
        {
          "internalType": "uint256",
          "name": "_amount",
          "type": "uint256"
        }
      ],
      "name": "depositToken",
      "outputs": [],
      "stateMutability": "nonpayable",
      "type": "function"
    },
    {
      "inputs": [
        {
          "internalType": "address",
          "name": "_token",
          "type": "address"
        },
        {
          "internalType": "uint256",
          "name": "_amount",
          "type": "uint256"
        }
      ],
      "name": "withDrawToken",
      "outputs": [],
      "stateMutability": "nonpayable",
      "type": "function"
    },
    {
      "inputs": [],
      "name": "depositEther",
      "outputs": [],
      "stateMutability": "payable",
      "type": "function",
      "payable": true
    },
    {
      "inputs": [
        {
          "internalType": "uint256",
          "name": "_amount",
          "type": "uint256"
        }
      ],
      "name": "withdrawEther",
      "outputs": [],
      "stateMutability": "nonpayable",
      "type": "function"
    },
    {
      "inputs": [
        {
          "internalType": "address",
          "name": "_token",
          "type": "address"
        },
        {
          "internalType": "address",
          "name": "_user",
          "type": "address"
        }
      ],
      "name": "balanceOf",
      "outputs": [
        {
          "internalType": "uint256",
          "name": "",
          "type": "uint256"
        }
      ],
      "stateMutability": "view",
      "type": "function",
      "constant": true
    },
    {
      "inputs": [
        {
          "internalType": "address",
          "name": "_tokenGet",
          "type": "address"
        },
        {
          "internalType": "uint256",
          "name": "_amountGet",
          "type": "uint256"
        },
        {
          "internalType": "address",
          "name": "_tokenGive",
          "type": "address"
        },
        {
          "internalType": "uint256",
          "name": "_amountGive",
          "type": "uint256"
        }
      ],
      "name": "makeOrder",
      "outputs": [],
      "stateMutability": "nonpayable",
      "type": "function"
    },
    {
      "inputs": [
        {
          "internalType": "uint256",
          "name": "_id",
          "type": "uint256"
        }
      ],
      "name": "cancelOrder",
      "outputs": [],
      "stateMutability": "nonpayable",
      "type": "function"
    },
    {
      "inputs": [
        {
          "internalType": "uint256",
          "name": "_id",
          "type": "uint256"
        }
      ],
      "name": "fillOrder",
      "outputs": [],
      "stateMutability": "nonpayable",
      "type": "function"
    }
  ],
  "bytecode": "0x60806040523480156200001157600080fd5b50604051620022683803806200226883398181016040528101906200003791906200012b565b816000806101000a81548173ffffffffffffffffffffffffffffffffffffffff021916908373ffffffffffffffffffffffffffffffffffffffff16021790555080600181905550505062000172565b600080fd5b600073ffffffffffffffffffffffffffffffffffffffff82169050919050565b6000620000b8826200008b565b9050919050565b620000ca81620000ab565b8114620000d657600080fd5b50565b600081519050620000ea81620000bf565b92915050565b6000819050919050565b6200010581620000f0565b81146200011157600080fd5b50565b6000815190506200012581620000fa565b92915050565b6000806040838503121562000145576200014462000086565b5b60006200015585828601620000d9565b9250506020620001688582860162000114565b9150509250929050565b6120e680620001826000396000f3fe608060405260043610610109576000357c01000000000000000000000000000000000000000000000000000000009004806367b830ad116100a75780639a5c90aa116100765780639a5c90aa146102ed578063a85c38ef14610316578063c0977a3814610359578063f7888aec146103965761010a565b806367b830ad146102665780637fd6f15c1461028f57806385bc7071146102ba57806398ea5fca146102e35761010a565b80634a93e0da116100e35780634a93e0da14610198578063508493bc146101d5578063514fcac71461021257806365e17c9d1461023b5761010a565b80632453ffa81461011b578063338b5dea146101465780633bed33ce1461016f5761010a565b5b34801561011657600080fd5b600080fd5b34801561012757600080fd5b506101306103d3565b60405161013d9190611b3f565b60405180910390f35b34801561015257600080fd5b5061016d60048036038101906101689190611be9565b6103d9565b005b34801561017b57600080fd5b5061019660048036038101906101919190611c29565b610683565b005b3480156101a457600080fd5b506101bf60048036038101906101ba9190611c29565b610925565b6040516101cc9190611c71565b60405180910390f35b3480156101e157600080fd5b506101fc60048036038101906101f79190611c8c565b610945565b6040516102099190611b3f565b60405180910390f35b34801561021e57600080fd5b5061023960048036038101906102349190611c29565b61096a565b005b34801561024757600080fd5b50610250610ab8565b60405161025d9190611cdb565b60405180910390f35b34801561027257600080fd5b5061028d60048036038101906102889190611c29565b610adc565b005b34801561029b57600080fd5b506102a4610c1a565b6040516102b19190611b3f565b60405180910390f35b3480156102c657600080fd5b506102e160048036038101906102dc9190611be9565b610c20565b005b6102eb610f57565b005b3480156102f957600080fd5b50610314600480360381019061030f9190611cf6565b611122565b005b34801561032257600080fd5b5061033d60048036038101906103389190611c29565b61130e565b6040516103509796959493929190611d5d565b60405180910390f35b34801561036557600080fd5b50610380600480360381019061037b9190611c29565b6113b0565b60405161038d9190611c71565b60405180910390f35b3480156103a257600080fd5b506103bd60048036038101906103b89190611c8c565b6113d0565b6040516103ca9190611b3f565b60405180910390f35b60045481565b600073ffffffffffffffffffffffffffffffffffffffff168273ffffffffffffffffffffffffffffffffffffffff160361041257600080fd5b8173ffffffffffffffffffffffffffffffffffffffff166323b872dd3330846040518463ffffffff167c010000000000000000000000000000000000000000000000000000000002815260040161046b93929190611dcc565b6020604051808303816000875af115801561048a573d6000803e3d6000fd5b505050506040513d601f19601f820116820180604052508101906104ae9190611e2f565b6104b757600080fd5b61054681600260008573ffffffffffffffffffffffffffffffffffffffff1673ffffffffffffffffffffffffffffffffffffffff16815260200190815260200160002060003373ffffffffffffffffffffffffffffffffffffffff1673ffffffffffffffffffffffffffffffffffffffff1681526020019081526020016000205461145790919063ffffffff16565b600260008473ffffffffffffffffffffffffffffffffffffffff1673ffffffffffffffffffffffffffffffffffffffff16815260200190815260200160002060003373ffffffffffffffffffffffffffffffffffffffff1673ffffffffffffffffffffffffffffffffffffffff168152602001908152602001600020819055507fdcbc1c05240f31ff3ad067ef1ee35ce4997762752e3a095284754544f4c709d7823383600260008773ffffffffffffffffffffffffffffffffffffffff1673ffffffffffffffffffffffffffffffffffffffff16815260200190815260200160002060003373ffffffffffffffffffffffffffffffffffffffff1673ffffffffffffffffffffffffffffffffffffffff168152602001908152602001600020546040516106779493929190611e5c565b60405180910390a15050565b80600260008073ffffffffffffffffffffffffffffffffffffffff1673ffffffffffffffffffffffffffffffffffffffff16815260200190815260200160002060003373ffffffffffffffffffffffffffffffffffffffff1673ffffffffffffffffffffffffffffffffffffffff16815260200190815260200160002054101561070c57600080fd5b61079b81600260008073ffffffffffffffffffffffffffffffffffffffff1673ffffffffffffffffffffffffffffffffffffffff16815260200190815260200160002060003373ffffffffffffffffffffffffffffffffffffffff1673ffffffffffffffffffffffffffffffffffffffff1681526020019081526020016000205461148390919063ffffffff16565b600260008073ffffffffffffffffffffffffffffffffffffffff1673ffffffffffffffffffffffffffffffffffffffff16815260200190815260200160002060003373ffffffffffffffffffffffffffffffffffffffff1673ffffffffffffffffffffffffffffffffffffffff1681526020019081526020016000208190555060003390508073ffffffffffffffffffffffffffffffffffffffff166108fc839081150290604051600060405180830381858888f19350505050158015610866573d6000803e3d6000fd5b507ff341246adaac6f497bc2a656f546ab9e182111d630394f0c57c710a59a2cb56760003384600260008073ffffffffffffffffffffffffffffffffffffffff1673ffffffffffffffffffffffffffffffffffffffff16815260200190815260200160002060003373ffffffffffffffffffffffffffffffffffffffff1673ffffffffffffffffffffffffffffffffffffffff168152602001908152602001600020546040516109199493929190611e5c565b60405180910390a15050565b60066020528060005260406000206000915054906101000a900460ff1681565b6002602052816000526040600020602052806000526040600020600091509150505481565b60006003600083815260200190815260200160002090503373ffffffffffffffffffffffffffffffffffffffff168160010160009054906101000a900473ffffffffffffffffffffffffffffffffffffffff1673ffffffffffffffffffffffffffffffffffffffff16146109dd57600080fd5b818160000154146109ed57600080fd5b60016005600084815260200190815260200160002060006101000a81548160ff0219169083151502179055507f77de1da0be5f2d3b110d05c6694e5c4ff2d9da7cd23d84353ecf78c7b5acec618160000154338360020160009054906101000a900473ffffffffffffffffffffffffffffffffffffffff1684600301548560040160009054906101000a900473ffffffffffffffffffffffffffffffffffffffff1686600501548760060154604051610aac9796959493929190611d5d565b60405180910390a15050565b60008054906101000a900473ffffffffffffffffffffffffffffffffffffffff1681565b600081118015610aee57506004548111155b610af757600080fd5b6006600082815260200190815260200160002060009054906101000a900460ff1615610b2257600080fd5b6005600082815260200190815260200160002060009054906101000a900460ff1615610b4d57600080fd5b6000600360008381526020019081526020016000209050610bea81600001548260010160009054906101000a900473ffffffffffffffffffffffffffffffffffffffff168360020160009054906101000a900473ffffffffffffffffffffffffffffffffffffffff1684600301548560040160009054906101000a900473ffffffffffffffffffffffffffffffffffffffff1686600501546114aa565b60016006600084815260200190815260200160002060006101000a81548160ff0219169083151502179055505050565b60015481565b600073ffffffffffffffffffffffffffffffffffffffff168273ffffffffffffffffffffffffffffffffffffffff1603610c5957600080fd5b6000600260008473ffffffffffffffffffffffffffffffffffffffff1673ffffffffffffffffffffffffffffffffffffffff16815260200190815260200160002060003373ffffffffffffffffffffffffffffffffffffffff1673ffffffffffffffffffffffffffffffffffffffff16815260200190815260200160002054905081811015610ce757600080fd5b8273ffffffffffffffffffffffffffffffffffffffff1663a9059cbb33846040518363ffffffff167c0100000000000000000000000000000000000000000000000000000000028152600401610d3e929190611ea1565b6020604051808303816000875af1158015610d5d573d6000803e3d6000fd5b505050506040513d601f19601f82011682018060405250810190610d819190611e2f565b610d8a57600080fd5b610e1982600260008673ffffffffffffffffffffffffffffffffffffffff1673ffffffffffffffffffffffffffffffffffffffff16815260200190815260200160002060003373ffffffffffffffffffffffffffffffffffffffff1673ffffffffffffffffffffffffffffffffffffffff1681526020019081526020016000205461148390919063ffffffff16565b600260008573ffffffffffffffffffffffffffffffffffffffff1673ffffffffffffffffffffffffffffffffffffffff16815260200190815260200160002060003373ffffffffffffffffffffffffffffffffffffffff1673ffffffffffffffffffffffffffffffffffffffff168152602001908152602001600020819055507ff341246adaac6f497bc2a656f546ab9e182111d630394f0c57c710a59a2cb567833384600260008873ffffffffffffffffffffffffffffffffffffffff1673ffffffffffffffffffffffffffffffffffffffff16815260200190815260200160002060003373ffffffffffffffffffffffffffffffffffffffff1673ffffffffffffffffffffffffffffffffffffffff16815260200190815260200160002054604051610f4a9493929190611e5c565b60405180910390a1505050565b610fe634600260008073ffffffffffffffffffffffffffffffffffffffff1673ffffffffffffffffffffffffffffffffffffffff16815260200190815260200160002060003373ffffffffffffffffffffffffffffffffffffffff1673ffffffffffffffffffffffffffffffffffffffff1681526020019081526020016000205461145790919063ffffffff16565b600260008073ffffffffffffffffffffffffffffffffffffffff1673ffffffffffffffffffffffffffffffffffffffff16815260200190815260200160002060003373ffffffffffffffffffffffffffffffffffffffff1673ffffffffffffffffffffffffffffffffffffffff168152602001908152602001600020819055507fdcbc1c05240f31ff3ad067ef1ee35ce4997762752e3a095284754544f4c709d760003334600260008073ffffffffffffffffffffffffffffffffffffffff1673ffffffffffffffffffffffffffffffffffffffff16815260200190815260200160002060003373ffffffffffffffffffffffffffffffffffffffff1673ffffffffffffffffffffffffffffffffffffffff168152602001908152602001600020546040516111189493929190611e5c565b60405180910390a1565b60016004546111319190611ef9565b6004819055506040518060e0016040528060045481526020013373ffffffffffffffffffffffffffffffffffffffff1681526020018573ffffffffffffffffffffffffffffffffffffffff1681526020018481526020018373ffffffffffffffffffffffffffffffffffffffff168152602001828152602001428152506003600060045481526020019081526020016000206000820151816000015560208201518160010160006101000a81548173ffffffffffffffffffffffffffffffffffffffff021916908373ffffffffffffffffffffffffffffffffffffffff16021790555060408201518160020160006101000a81548173ffffffffffffffffffffffffffffffffffffffff021916908373ffffffffffffffffffffffffffffffffffffffff1602179055506060820151816003015560808201518160040160006101000a81548173ffffffffffffffffffffffffffffffffffffffff021916908373ffffffffffffffffffffffffffffffffffffffff16021790555060a0820151816005015560c082015181600601559050507f9d33853d43e3607b4cc01fdc78338ff2dca6fef7db9232dae6d3eb55fbc3b1096004543386868686426040516113009796959493929190611d5d565b60405180910390a150505050565b60036020528060005260406000206000915090508060000154908060010160009054906101000a900473ffffffffffffffffffffffffffffffffffffffff16908060020160009054906101000a900473ffffffffffffffffffffffffffffffffffffffff16908060030154908060040160009054906101000a900473ffffffffffffffffffffffffffffffffffffffff16908060050154908060060154905087565b60056020528060005260406000206000915054906101000a900460ff1681565b6000600260008473ffffffffffffffffffffffffffffffffffffffff1673ffffffffffffffffffffffffffffffffffffffff16815260200190815260200160002060008373ffffffffffffffffffffffffffffffffffffffff1673ffffffffffffffffffffffffffffffffffffffff16815260200190815260200160002054905092915050565b60008082846114669190611ef9565b90508381101561147957611478611f2d565b5b8091505092915050565b60008282111561149657611495611f2d565b5b81836114a29190611f5c565b905092915050565b60006114d460646114c660015485611ac390919063ffffffff16565b611b0b90919063ffffffff16565b90506115776114ec828661145790919063ffffffff16565b600260008873ffffffffffffffffffffffffffffffffffffffff1673ffffffffffffffffffffffffffffffffffffffff16815260200190815260200160002060003373ffffffffffffffffffffffffffffffffffffffff1673ffffffffffffffffffffffffffffffffffffffff1681526020019081526020016000205461148390919063ffffffff16565b600260008773ffffffffffffffffffffffffffffffffffffffff1673ffffffffffffffffffffffffffffffffffffffff16815260200190815260200160002060003373ffffffffffffffffffffffffffffffffffffffff1673ffffffffffffffffffffffffffffffffffffffff1681526020019081526020016000208190555061168684600260008873ffffffffffffffffffffffffffffffffffffffff1673ffffffffffffffffffffffffffffffffffffffff16815260200190815260200160002060008973ffffffffffffffffffffffffffffffffffffffff1673ffffffffffffffffffffffffffffffffffffffff1681526020019081526020016000205461145790919063ffffffff16565b600260008773ffffffffffffffffffffffffffffffffffffffff1673ffffffffffffffffffffffffffffffffffffffff16815260200190815260200160002060008873ffffffffffffffffffffffffffffffffffffffff1673ffffffffffffffffffffffffffffffffffffffff168152602001908152602001600020819055506117b681600260008873ffffffffffffffffffffffffffffffffffffffff1673ffffffffffffffffffffffffffffffffffffffff16815260200190815260200160002060008060009054906101000a900473ffffffffffffffffffffffffffffffffffffffff1673ffffffffffffffffffffffffffffffffffffffff1673ffffffffffffffffffffffffffffffffffffffff1681526020019081526020016000205461145790919063ffffffff16565b600260008773ffffffffffffffffffffffffffffffffffffffff1673ffffffffffffffffffffffffffffffffffffffff16815260200190815260200160002060008060009054906101000a900473ffffffffffffffffffffffffffffffffffffffff1673ffffffffffffffffffffffffffffffffffffffff1673ffffffffffffffffffffffffffffffffffffffff168152602001908152602001600020819055506118e682600260008673ffffffffffffffffffffffffffffffffffffffff1673ffffffffffffffffffffffffffffffffffffffff16815260200190815260200160002060008973ffffffffffffffffffffffffffffffffffffffff1673ffffffffffffffffffffffffffffffffffffffff1681526020019081526020016000205461148390919063ffffffff16565b600260008573ffffffffffffffffffffffffffffffffffffffff1673ffffffffffffffffffffffffffffffffffffffff16815260200190815260200160002060008873ffffffffffffffffffffffffffffffffffffffff1673ffffffffffffffffffffffffffffffffffffffff168152602001908152602001600020819055506119f582600260008673ffffffffffffffffffffffffffffffffffffffff1673ffffffffffffffffffffffffffffffffffffffff16815260200190815260200160002060003373ffffffffffffffffffffffffffffffffffffffff1673ffffffffffffffffffffffffffffffffffffffff1681526020019081526020016000205461145790919063ffffffff16565b600260008573ffffffffffffffffffffffffffffffffffffffff1673ffffffffffffffffffffffffffffffffffffffff16815260200190815260200160002060003373ffffffffffffffffffffffffffffffffffffffff1673ffffffffffffffffffffffffffffffffffffffff168152602001908152602001600020819055507f0dddf4182dc0fc1a311cb75f049c97403c6b8a99cf6b2229a36e7c526acb3f818787878787873342604051611ab2989796959493929190611f90565b60405180910390a150505050505050565b6000808303611ad55760009050611b05565b60008284611ae3919061200e565b9050828482611af2919061207f565b14611b0057611aff611f2d565b5b809150505b92915050565b6000808284611b1a919061207f565b90508091505092915050565b6000819050919050565b611b3981611b26565b82525050565b6000602082019050611b546000830184611b30565b92915050565b600080fd5b600073ffffffffffffffffffffffffffffffffffffffff82169050919050565b6000611b8a82611b5f565b9050919050565b611b9a81611b7f565b8114611ba557600080fd5b50565b600081359050611bb781611b91565b92915050565b611bc681611b26565b8114611bd157600080fd5b50565b600081359050611be381611bbd565b92915050565b60008060408385031215611c0057611bff611b5a565b5b6000611c0e85828601611ba8565b9250506020611c1f85828601611bd4565b9150509250929050565b600060208284031215611c3f57611c3e611b5a565b5b6000611c4d84828501611bd4565b91505092915050565b60008115159050919050565b611c6b81611c56565b82525050565b6000602082019050611c866000830184611c62565b92915050565b60008060408385031215611ca357611ca2611b5a565b5b6000611cb185828601611ba8565b9250506020611cc285828601611ba8565b9150509250929050565b611cd581611b7f565b82525050565b6000602082019050611cf06000830184611ccc565b92915050565b60008060008060808587031215611d1057611d0f611b5a565b5b6000611d1e87828801611ba8565b9450506020611d2f87828801611bd4565b9350506040611d4087828801611ba8565b9250506060611d5187828801611bd4565b91505092959194509250565b600060e082019050611d72600083018a611b30565b611d7f6020830189611ccc565b611d8c6040830188611ccc565b611d996060830187611b30565b611da66080830186611ccc565b611db360a0830185611b30565b611dc060c0830184611b30565b98975050505050505050565b6000606082019050611de16000830186611ccc565b611dee6020830185611ccc565b611dfb6040830184611b30565b949350505050565b611e0c81611c56565b8114611e1757600080fd5b50565b600081519050611e2981611e03565b92915050565b600060208284031215611e4557611e44611b5a565b5b6000611e5384828501611e1a565b91505092915050565b6000608082019050611e716000830187611ccc565b611e7e6020830186611ccc565b611e8b6040830185611b30565b611e986060830184611b30565b95945050505050565b6000604082019050611eb66000830185611ccc565b611ec36020830184611b30565b9392505050565b7f4e487b7100000000000000000000000000000000000000000000000000000000600052601160045260246000fd5b6000611f0482611b26565b9150611f0f83611b26565b9250828201905080821115611f2757611f26611eca565b5b92915050565b7f4e487b7100000000000000000000000000000000000000000000000000000000600052600160045260246000fd5b6000611f6782611b26565b9150611f7283611b26565b9250828203905081811115611f8a57611f89611eca565b5b92915050565b600061010082019050611fa6600083018b611b30565b611fb3602083018a611ccc565b611fc06040830189611ccc565b611fcd6060830188611b30565b611fda6080830187611ccc565b611fe760a0830186611b30565b611ff460c0830185611ccc565b61200160e0830184611b30565b9998505050505050505050565b600061201982611b26565b915061202483611b26565b925082820261203281611b26565b9150828204841483151761204957612048611eca565b5b5092915050565b7f4e487b7100000000000000000000000000000000000000000000000000000000600052601260045260246000fd5b600061208a82611b26565b915061209583611b26565b9250826120a5576120a4612050565b5b82820490509291505056fea2646970667358221220a92eea4dc2d744b6bf60025be255a433d2f2831736df81773bdeb27884fec13564736f6c63430008140033",
  "immutableReferences": {},
  "source": "// SPDX-License-Identifier: MIT\n// Deposite & Withdraw Funds\n// Manage orders - Make or cancle\n// Handle Trades - Charge fees\n\n// TODO:\n// [X] Set the fee  account\n    // Whenever we deploy the smart contract and will also set the account whenever we  deploy the \n    // samrt contract will tell it where the fee goes\n// [X] Deposite tokens\n// [] Withdraw tokens\n// [] Deposite Ether\n// [] WithDraw Ether\n// [] Check balances\n// [] Make order\n// [] Cancle order\n// [] Fill order\n// [] Charge fees \npragma solidity >=0.8.9 <0.9.0;\nimport \"./JasonToken.sol\"; \n\ncontract Exchange {\n    using SafeMath for uint;\n    // Variables\n    address public feeAccount; // The account that recieves exchange fees\n    uint256 public feePercent; // the fee percentage\n    // The frist key is the token address\n    // The second key is the address of the user who deposited the token\n    mapping(address => mapping(address => uint256)) public tokens;\n    address constant ETHER = address(0); // Store ether in tokens mapping with blank address\n    //  a way to model the order \n    struct _Order {\n        uint256 id;\n        address user; // This is going to be the person who made the order\n        address tokenGet; // The address of the token they want to purchase\n        uint256 amountGet; // The amount of tokens I want to get \n        address tokenGive; // The token that they are going to use in trade \n        uint256 amountGive; // The amount of tokens that they are going to use in the trade \n        uint256 timestamp; // This is gona be the actual time that the order was created\n    }\n    // A way store the order\n    mapping (uint256 => _Order) public orders;\n    uint256 public orderCount;\n    mapping(uint256 => bool) public orderCanceled;\n    mapping(uint256 => bool) public orderFilled;\n\n    // Events\n    event Deposit(address token,address user,uint256 amount,uint256 balance);\n    event Withdraw(address token,address user,uint256 amount,uint256 balance);\n    event Order (uint256 id,address user,address tokenGet,uint256 amountGet,address tokenGive,uint256 amountGive,uint256 timestamp);\n    event Cancel ( uint256 id,address user,address tokenGet,uint256 amountGet,address tokenGive,uint256 amountGive,uint256 timestamp);\n    event Trade(uint256 id,address user,address tokenGet,uint256 amountGet,address tokenGive,uint256 amountGive,address userFill,uint256 timestamp);\n\n\n    constructor(address _freeAccount,uint256 _freePercent){\n        feeAccount = _freeAccount;\n        feePercent = _freePercent;\n    }\n    // Fallback:revert if Ether is sent to this smart contract by mistakes \n    fallback() external {\n        revert();\n    }\n    function depositToken(address _token,uint256 _amount) public {\n        // Which Token ?\n        // How much ?\n        // Send Token to this contract \n        // Manage deposite - update balance\n        // Emint Event \n        require(_token != ETHER);\n        require( JasonToken(_token).transferFrom(msg.sender, address(this), _amount));\n        tokens[_token][msg.sender] =  tokens[_token][msg.sender].add(_amount);\n        emit Deposit(_token, msg.sender, _amount, tokens[_token][msg.sender]);\n    }\n\n    function withDrawToken(address _token,uint256 _amount) public {\n        require(_token != ETHER);\n        uint256 balance = tokens[_token][msg.sender];\n        require(balance>=_amount);\n        require(JasonToken(_token).transfer(msg.sender, _amount));\n        tokens[_token][msg.sender] = tokens[_token][msg.sender].sub(_amount);\n        emit Withdraw(_token, msg.sender, _amount, tokens[_token][msg.sender]);\n    }\n    function depositEther() payable public {\n        tokens[ETHER][msg.sender] = tokens[ETHER][msg.sender].add(msg.value);\n        emit Deposit(ETHER,msg.sender,msg.value,tokens[ETHER][msg.sender]);\n    }\n    function  withdrawEther(uint _amount)  public {\n        require(tokens[ETHER][msg.sender]>=_amount);\n        tokens[ETHER][msg.sender] = tokens[ETHER][msg.sender].sub(_amount);\n        //msg.sender.transfer(_amount);\n        address payable recipient = payable(msg.sender);\n        recipient.transfer(_amount);\n        emit Withdraw(ETHER,msg.sender,_amount,tokens[ETHER][msg.sender]);\n    }\n    function balanceOf(address _token,address _user) public view returns (uint256){\n        return tokens[_token][_user];\n    }\n\n    function makeOrder(address _tokenGet,uint256 _amountGet,address _tokenGive,uint256 _amountGive) public {\n        orderCount = orderCount + 1;\n        orders[orderCount] = _Order(orderCount,msg.sender,_tokenGet,_amountGet,_tokenGive,_amountGive,block.timestamp);\n        emit Order (orderCount,msg.sender,_tokenGet,_amountGet,_tokenGive,_amountGive,block.timestamp);\n    }\n    function cancelOrder(uint256 _id) public {\n        _Order storage _order = orders[_id];\n        // Must be my order\n        require(address(_order.user) == msg.sender);\n        // Must be a valid order\n        require(_order.id == _id);\n        orderCanceled[_id] = true;\n        emit Cancel (_order.id,msg.sender,_order.tokenGet,_order.amountGet,_order.tokenGive,_order.amountGive,_order.timestamp);\n    }\n    function fillOrder(uint256 _id) public {\n        require(_id > 0 && _id <= orderCount);\n        require(!orderFilled[_id]);\n        require(!orderCanceled[_id]);\n        _Order storage _order = orders[_id];\n        _trade(_order.id,_order.user,_order.tokenGet,_order.amountGet,_order.tokenGive,_order.amountGive);\n        orderFilled[_id] = true;\n    }\n    function _trade(uint256 _orderId,address _user,address _tokenGet,uint256 _amountGet,address _tokenGive,uint256 _amountGive) internal {\n        //fee deduceted from _amountGet\n        // fee paid by the user that fills the order,a.k.a msg.sender\n        uint256 _feeAmount = _amountGive.mul(feePercent).div(100);\n        // Execute trade     // Charge fee\n        tokens[_tokenGet][msg.sender] = tokens[_tokenGet][msg.sender].sub(_amountGet.add(_feeAmount));\n        tokens[_tokenGet][_user] = tokens[_tokenGet][_user].add(_amountGet);\n        tokens[_tokenGet][feeAccount] =   tokens[_tokenGet][feeAccount].add(_feeAmount);\n        tokens[_tokenGive][_user] = tokens[_tokenGive][_user].sub(_amountGive);\n        tokens[_tokenGive][msg.sender] = tokens[_tokenGive][msg.sender].add(_amountGive);\n        // Emit trade event\n        emit Trade(_orderId,_user,_tokenGet,_amountGet,_tokenGive,_amountGive,msg.sender,block.timestamp);\n    }\n\n}\n",
  "sourcePath": "/Users/a1234/Desktop/code/web3/tokenExchange/token-exchange/src/contracts/DExchange.sol",
  "compiler": {
    "name": "solc",
    "version": "0.8.20+commit.a1b79de6.Emscripten.clang"
  },
  "schemaVersion": "3.4.16",
  "updatedAt": "2023-09-22T05:12:16.380Z",
  "networkType": "ethereum",
  "devdoc": {
    "kind": "dev",
    "methods": {},
    "version": 1
  },
  "userdoc": {
    "kind": "user",
    "methods": {},
    "version": 1
  }
}